{
  "contractName": "ArtistCollection",
  "abi": [
    {
      "inputs": [
        {
          "internalType": "string",
          "name": "_name",
          "type": "string"
        },
        {
          "internalType": "string",
          "name": "_symbol",
          "type": "string"
        }
      ],
      "stateMutability": "nonpayable",
      "type": "constructor"
    },
    {
      "anonymous": false,
      "inputs": [
        {
          "indexed": true,
          "internalType": "address",
          "name": "owner",
          "type": "address"
        },
        {
          "indexed": true,
          "internalType": "address",
          "name": "approved",
          "type": "address"
        },
        {
          "indexed": true,
          "internalType": "uint256",
          "name": "tokenId",
          "type": "uint256"
        }
      ],
      "name": "Approval",
      "type": "event"
    },
    {
      "anonymous": false,
      "inputs": [
        {
          "indexed": true,
          "internalType": "address",
          "name": "owner",
          "type": "address"
        },
        {
          "indexed": true,
          "internalType": "address",
          "name": "operator",
          "type": "address"
        },
        {
          "indexed": false,
          "internalType": "bool",
          "name": "approved",
          "type": "bool"
        }
      ],
      "name": "ApprovalForAll",
      "type": "event"
    },
    {
      "anonymous": false,
      "inputs": [
        {
          "indexed": true,
          "internalType": "address",
          "name": "from",
          "type": "address"
        },
        {
          "indexed": true,
          "internalType": "address",
          "name": "to",
          "type": "address"
        },
        {
          "indexed": true,
          "internalType": "uint256",
          "name": "tokenId",
          "type": "uint256"
        }
      ],
      "name": "Transfer",
      "type": "event"
    },
    {
      "inputs": [
        {
          "internalType": "address",
          "name": "to",
          "type": "address"
        },
        {
          "internalType": "uint256",
          "name": "tokenId",
          "type": "uint256"
        }
      ],
      "name": "approve",
      "outputs": [],
      "stateMutability": "nonpayable",
      "type": "function"
    },
    {
      "inputs": [
        {
          "internalType": "address",
          "name": "owner",
          "type": "address"
        }
      ],
      "name": "balanceOf",
      "outputs": [
        {
          "internalType": "uint256",
          "name": "",
          "type": "uint256"
        }
      ],
      "stateMutability": "view",
      "type": "function"
    },
    {
      "inputs": [
        {
          "internalType": "uint256",
          "name": "tokenId",
          "type": "uint256"
        }
      ],
      "name": "getApproved",
      "outputs": [
        {
          "internalType": "address",
          "name": "",
          "type": "address"
        }
      ],
      "stateMutability": "view",
      "type": "function"
    },
    {
      "inputs": [
        {
          "internalType": "address",
          "name": "owner",
          "type": "address"
        },
        {
          "internalType": "address",
          "name": "operator",
          "type": "address"
        }
      ],
      "name": "isApprovedForAll",
      "outputs": [
        {
          "internalType": "bool",
          "name": "",
          "type": "bool"
        }
      ],
      "stateMutability": "view",
      "type": "function"
    },
    {
      "inputs": [],
      "name": "name",
      "outputs": [
        {
          "internalType": "string",
          "name": "",
          "type": "string"
        }
      ],
      "stateMutability": "view",
      "type": "function"
    },
    {
      "inputs": [
        {
          "internalType": "uint256",
          "name": "tokenId",
          "type": "uint256"
        }
      ],
      "name": "ownerOf",
      "outputs": [
        {
          "internalType": "address",
          "name": "",
          "type": "address"
        }
      ],
      "stateMutability": "view",
      "type": "function"
    },
    {
      "inputs": [
        {
          "internalType": "address",
          "name": "from",
          "type": "address"
        },
        {
          "internalType": "address",
          "name": "to",
          "type": "address"
        },
        {
          "internalType": "uint256",
          "name": "tokenId",
          "type": "uint256"
        }
      ],
      "name": "safeTransferFrom",
      "outputs": [],
      "stateMutability": "nonpayable",
      "type": "function"
    },
    {
      "inputs": [
        {
          "internalType": "address",
          "name": "from",
          "type": "address"
        },
        {
          "internalType": "address",
          "name": "to",
          "type": "address"
        },
        {
          "internalType": "uint256",
          "name": "tokenId",
          "type": "uint256"
        },
        {
          "internalType": "bytes",
          "name": "_data",
          "type": "bytes"
        }
      ],
      "name": "safeTransferFrom",
      "outputs": [],
      "stateMutability": "nonpayable",
      "type": "function"
    },
    {
      "inputs": [
        {
          "internalType": "address",
          "name": "operator",
          "type": "address"
        },
        {
          "internalType": "bool",
          "name": "approved",
          "type": "bool"
        }
      ],
      "name": "setApprovalForAll",
      "outputs": [],
      "stateMutability": "nonpayable",
      "type": "function"
    },
    {
      "inputs": [
        {
          "internalType": "bytes4",
          "name": "interfaceId",
          "type": "bytes4"
        }
      ],
      "name": "supportsInterface",
      "outputs": [
        {
          "internalType": "bool",
          "name": "",
          "type": "bool"
        }
      ],
      "stateMutability": "view",
      "type": "function"
    },
    {
      "inputs": [],
      "name": "symbol",
      "outputs": [
        {
          "internalType": "string",
          "name": "",
          "type": "string"
        }
      ],
      "stateMutability": "view",
      "type": "function"
    },
    {
      "inputs": [
        {
          "internalType": "uint256",
          "name": "tokenId",
          "type": "uint256"
        }
      ],
      "name": "tokenURI",
      "outputs": [
        {
          "internalType": "string",
          "name": "",
          "type": "string"
        }
      ],
      "stateMutability": "view",
      "type": "function"
    },
    {
      "inputs": [
        {
          "internalType": "address",
          "name": "from",
          "type": "address"
        },
        {
          "internalType": "address",
          "name": "to",
          "type": "address"
        },
        {
          "internalType": "uint256",
          "name": "tokenId",
          "type": "uint256"
        }
      ],
      "name": "transferFrom",
      "outputs": [],
      "stateMutability": "nonpayable",
      "type": "function"
    },
    {
      "inputs": [
        {
          "internalType": "address",
          "name": "_player",
          "type": "address"
        },
        {
          "internalType": "string",
          "name": "_tokenURI",
          "type": "string"
        },
        {
          "internalType": "uint256",
          "name": "_height",
          "type": "uint256"
        },
        {
          "internalType": "bool",
          "name": "_hair",
          "type": "bool"
        }
      ],
      "name": "MintNFT",
      "outputs": [
        {
          "internalType": "uint256",
          "name": "",
          "type": "uint256"
        }
      ],
      "stateMutability": "nonpayable",
      "type": "function"
    }
  ],
  "bytecode": "0x60806040523480156200001157600080fd5b5060405162003009380380620030098339818101604052810190620000379190620002c2565b818181600090805190602001906200005192919062000075565b5080600190805190602001906200006a92919062000075565b5050505050620003ab565b828054620000839062000376565b90600052602060002090601f016020900481019282620000a75760008555620000f3565b82601f10620000c257805160ff1916838001178555620000f3565b82800160010185558215620000f3579182015b82811115620000f2578251825591602001919060010190620000d5565b5b50905062000102919062000106565b5090565b5b808211156200012157600081600090555060010162000107565b5090565b6000604051905090565b600080fd5b600080fd5b600080fd5b600080fd5b6000601f19601f8301169050919050565b7f4e487b7100000000000000000000000000000000000000000000000000000000600052604160045260246000fd5b6200018e8262000143565b810181811067ffffffffffffffff82111715620001b057620001af62000154565b5b80604052505050565b6000620001c562000125565b9050620001d3828262000183565b919050565b600067ffffffffffffffff821115620001f657620001f562000154565b5b620002018262000143565b9050602081019050919050565b60005b838110156200022e57808201518184015260208101905062000211565b838111156200023e576000848401525b50505050565b60006200025b6200025584620001d8565b620001b9565b9050828152602081018484840111156200027a57620002796200013e565b5b620002878482856200020e565b509392505050565b600082601f830112620002a757620002a662000139565b5b8151620002b984826020860162000244565b91505092915050565b60008060408385031215620002dc57620002db6200012f565b5b600083015167ffffffffffffffff811115620002fd57620002fc62000134565b5b6200030b858286016200028f565b925050602083015167ffffffffffffffff8111156200032f576200032e62000134565b5b6200033d858286016200028f565b9150509250929050565b7f4e487b7100000000000000000000000000000000000000000000000000000000600052602260045260246000fd5b600060028204905060018216806200038f57607f821691505b602082108103620003a557620003a462000347565b5b50919050565b612c4e80620003bb6000396000f3fe608060405234801561001057600080fd5b50600436106100ea5760003560e01c806370a082311161008c578063b88d4fde11610066578063b88d4fde1461025b578063c87b56dd14610277578063e985e9c5146102a7578063f405efbc146102d7576100ea565b806370a08231146101f157806395d89b4114610221578063a22cb4651461023f576100ea565b8063095ea7b3116100c8578063095ea7b31461016d57806323b872dd1461018957806342842e0e146101a55780636352211e146101c1576100ea565b806301ffc9a7146100ef57806306fdde031461011f578063081812fc1461013d575b600080fd5b6101096004803603810190610104919061198b565b610307565b60405161011691906119d3565b60405180910390f35b6101276103e9565b6040516101349190611a87565b60405180910390f35b61015760048036038101906101529190611adf565b61047b565b6040516101649190611b4d565b60405180910390f35b61018760048036038101906101829190611b94565b610500565b005b6101a3600480360381019061019e9190611bd4565b610617565b005b6101bf60048036038101906101ba9190611bd4565b610677565b005b6101db60048036038101906101d69190611adf565b610697565b6040516101e89190611b4d565b60405180910390f35b61020b60048036038101906102069190611c27565b610748565b6040516102189190611c63565b60405180910390f35b6102296107ff565b6040516102369190611a87565b60405180910390f35b61025960048036038101906102549190611caa565b610891565b005b61027560048036038101906102709190611e1f565b6108a7565b005b610291600480360381019061028c9190611adf565b610909565b60405161029e9190611a87565b60405180910390f35b6102c160048036038101906102bc9190611ea2565b610a5a565b6040516102ce91906119d3565b60405180910390f35b6102f160048036038101906102ec9190611f83565b610aee565b6040516102fe9190611c63565b60405180910390f35b60007f80ac58cd000000000000000000000000000000000000000000000000000000007bffffffffffffffffffffffffffffffffffffffffffffffffffffffff1916827bffffffffffffffffffffffffffffffffffffffffffffffffffffffff191614806103d257507f5b5e139f000000000000000000000000000000000000000000000000000000007bffffffffffffffffffffffffffffffffffffffffffffffffffffffff1916827bffffffffffffffffffffffffffffffffffffffffffffffffffffffff1916145b806103e257506103e182610b96565b5b9050919050565b6060600080546103f890612035565b80601f016020809104026020016040519081016040528092919081815260200182805461042490612035565b80156104715780601f1061044657610100808354040283529160200191610471565b820191906000526020600020905b81548152906001019060200180831161045457829003601f168201915b5050505050905090565b600061048682610c00565b6104c5576040517f08c379a00000000000000000000000000000000000000000000000000000000081526004016104bc906120d8565b60405180910390fd5b6004600083815260200190815260200160002060009054906101000a900473ffffffffffffffffffffffffffffffffffffffff169050919050565b600061050b82610697565b90508073ffffffffffffffffffffffffffffffffffffffff168373ffffffffffffffffffffffffffffffffffffffff160361057b576040517f08c379a00000000000000000000000000000000000000000000000000000000081526004016105729061216a565b60405180910390fd5b8073ffffffffffffffffffffffffffffffffffffffff1661059a610c6c565b73ffffffffffffffffffffffffffffffffffffffff1614806105c957506105c8816105c3610c6c565b610a5a565b5b610608576040517f08c379a00000000000000000000000000000000000000000000000000000000081526004016105ff906121fc565b60405180910390fd5b6106128383610c74565b505050565b610628610622610c6c565b82610d2d565b610667576040517f08c379a000000000000000000000000000000000000000000000000000000000815260040161065e9061228e565b60405180910390fd5b610672838383610e0b565b505050565b610692838383604051806020016040528060008152506108a7565b505050565b6000806002600084815260200190815260200160002060009054906101000a900473ffffffffffffffffffffffffffffffffffffffff169050600073ffffffffffffffffffffffffffffffffffffffff168173ffffffffffffffffffffffffffffffffffffffff160361073f576040517f08c379a000000000000000000000000000000000000000000000000000000000815260040161073690612320565b60405180910390fd5b80915050919050565b60008073ffffffffffffffffffffffffffffffffffffffff168273ffffffffffffffffffffffffffffffffffffffff16036107b8576040517f08c379a00000000000000000000000000000000000000000000000000000000081526004016107af906123b2565b60405180910390fd5b600360008373ffffffffffffffffffffffffffffffffffffffff1673ffffffffffffffffffffffffffffffffffffffff168152602001908152602001600020549050919050565b60606001805461080e90612035565b80601f016020809104026020016040519081016040528092919081815260200182805461083a90612035565b80156108875780601f1061085c57610100808354040283529160200191610887565b820191906000526020600020905b81548152906001019060200180831161086a57829003601f168201915b5050505050905090565b6108a361089c610c6c565b8383611071565b5050565b6108b86108b2610c6c565b83610d2d565b6108f7576040517f08c379a00000000000000000000000000000000000000000000000000000000081526004016108ee9061228e565b60405180910390fd5b610903848484846111dd565b50505050565b606061091482610c00565b610953576040517f08c379a000000000000000000000000000000000000000000000000000000000815260040161094a90612444565b60405180910390fd5b600060066000848152602001908152602001600020805461097390612035565b80601f016020809104026020016040519081016040528092919081815260200182805461099f90612035565b80156109ec5780601f106109c1576101008083540402835291602001916109ec565b820191906000526020600020905b8154815290600101906020018083116109cf57829003601f168201915b5050505050905060006109fd611239565b90506000815103610a12578192505050610a55565b600082511115610a47578082604051602001610a2f9291906124a0565b60405160208183030381529060405292505050610a55565b610a5084611250565b925050505b919050565b6000600560008473ffffffffffffffffffffffffffffffffffffffff1673ffffffffffffffffffffffffffffffffffffffff16815260200190815260200160002060008373ffffffffffffffffffffffffffffffffffffffff1673ffffffffffffffffffffffffffffffffffffffff16815260200190815260200160002060009054906101000a900460ff16905092915050565b6000610afa60076112f7565b6008604051806040016040528085815260200184151581525090806001815401808255809150506001900390600052602060002090600202016000909190919091506000820151816000015560208201518160010160006101000a81548160ff02191690831515021790555050506000610b74600761130d565b9050610b80868261131b565b610b8a81866114f4565b80915050949350505050565b60007f01ffc9a7000000000000000000000000000000000000000000000000000000007bffffffffffffffffffffffffffffffffffffffffffffffffffffffff1916827bffffffffffffffffffffffffffffffffffffffffffffffffffffffff1916149050919050565b60008073ffffffffffffffffffffffffffffffffffffffff166002600084815260200190815260200160002060009054906101000a900473ffffffffffffffffffffffffffffffffffffffff1673ffffffffffffffffffffffffffffffffffffffff1614159050919050565b600033905090565b816004600083815260200190815260200160002060006101000a81548173ffffffffffffffffffffffffffffffffffffffff021916908373ffffffffffffffffffffffffffffffffffffffff160217905550808273ffffffffffffffffffffffffffffffffffffffff16610ce783610697565b73ffffffffffffffffffffffffffffffffffffffff167f8c5be1e5ebec7d5bd14f71427d1e84f3dd0314c0f7b2291e5b200ac8c7c3b92560405160405180910390a45050565b6000610d3882610c00565b610d77576040517f08c379a0000000000000000000000000000000000000000000000000000000008152600401610d6e90612536565b60405180910390fd5b6000610d8283610697565b90508073ffffffffffffffffffffffffffffffffffffffff168473ffffffffffffffffffffffffffffffffffffffff161480610dc45750610dc38185610a5a565b5b80610e0257508373ffffffffffffffffffffffffffffffffffffffff16610dea8461047b565b73ffffffffffffffffffffffffffffffffffffffff16145b91505092915050565b8273ffffffffffffffffffffffffffffffffffffffff16610e2b82610697565b73ffffffffffffffffffffffffffffffffffffffff1614610e81576040517f08c379a0000000000000000000000000000000000000000000000000000000008152600401610e78906125c8565b60405180910390fd5b600073ffffffffffffffffffffffffffffffffffffffff168273ffffffffffffffffffffffffffffffffffffffff1603610ef0576040517f08c379a0000000000000000000000000000000000000000000000000000000008152600401610ee79061265a565b60405180910390fd5b610efb838383611568565b610f06600082610c74565b6001600360008573ffffffffffffffffffffffffffffffffffffffff1673ffffffffffffffffffffffffffffffffffffffff1681526020019081526020016000206000828254610f5691906126a9565b925050819055506001600360008473ffffffffffffffffffffffffffffffffffffffff1673ffffffffffffffffffffffffffffffffffffffff1681526020019081526020016000206000828254610fad91906126dd565b92505081905550816002600083815260200190815260200160002060006101000a81548173ffffffffffffffffffffffffffffffffffffffff021916908373ffffffffffffffffffffffffffffffffffffffff160217905550808273ffffffffffffffffffffffffffffffffffffffff168473ffffffffffffffffffffffffffffffffffffffff167fddf252ad1be2c89b69c2b068fc378daa952ba7f163c4a11628f55a4df523b3ef60405160405180910390a461106c83838361156d565b505050565b8173ffffffffffffffffffffffffffffffffffffffff168373ffffffffffffffffffffffffffffffffffffffff16036110df576040517f08c379a00000000000000000000000000000000000000000000000000000000081526004016110d69061277f565b60405180910390fd5b80600560008573ffffffffffffffffffffffffffffffffffffffff1673ffffffffffffffffffffffffffffffffffffffff16815260200190815260200160002060008473ffffffffffffffffffffffffffffffffffffffff1673ffffffffffffffffffffffffffffffffffffffff16815260200190815260200160002060006101000a81548160ff0219169083151502179055508173ffffffffffffffffffffffffffffffffffffffff168373ffffffffffffffffffffffffffffffffffffffff167f17307eab39ab6107e8899845ad3d59bd9653f200f220920489ca2b5937696c31836040516111d091906119d3565b60405180910390a3505050565b6111e8848484610e0b565b6111f484848484611572565b611233576040517f08c379a000000000000000000000000000000000000000000000000000000000815260040161122a90612811565b60405180910390fd5b50505050565b606060405180602001604052806000815250905090565b606061125b82610c00565b61129a576040517f08c379a0000000000000000000000000000000000000000000000000000000008152600401611291906128a3565b60405180910390fd5b60006112a4611239565b905060008151116112c457604051806020016040528060008152506112ef565b806112ce846116f9565b6040516020016112df9291906124a0565b6040516020818303038152906040525b915050919050565b6001816000016000828254019250508190555050565b600081600001549050919050565b600073ffffffffffffffffffffffffffffffffffffffff168273ffffffffffffffffffffffffffffffffffffffff160361138a576040517f08c379a00000000000000000000000000000000000000000000000000000000081526004016113819061290f565b60405180910390fd5b61139381610c00565b156113d3576040517f08c379a00000000000000000000000000000000000000000000000000000000081526004016113ca9061297b565b60405180910390fd5b6113df60008383611568565b6001600360008473ffffffffffffffffffffffffffffffffffffffff1673ffffffffffffffffffffffffffffffffffffffff168152602001908152602001600020600082825461142f91906126dd565b92505081905550816002600083815260200190815260200160002060006101000a81548173ffffffffffffffffffffffffffffffffffffffff021916908373ffffffffffffffffffffffffffffffffffffffff160217905550808273ffffffffffffffffffffffffffffffffffffffff16600073ffffffffffffffffffffffffffffffffffffffff167fddf252ad1be2c89b69c2b068fc378daa952ba7f163c4a11628f55a4df523b3ef60405160405180910390a46114f06000838361156d565b5050565b6114fd82610c00565b61153c576040517f08c379a000000000000000000000000000000000000000000000000000000000815260040161153390612a0d565b60405180910390fd5b8060066000848152602001908152602001600020908051906020019061156392919061187c565b505050565b505050565b505050565b60006115938473ffffffffffffffffffffffffffffffffffffffff16611859565b156116ec578373ffffffffffffffffffffffffffffffffffffffff1663150b7a026115bc610c6c565b8786866040518563ffffffff1660e01b81526004016115de9493929190612a82565b6020604051808303816000875af192505050801561161a57506040513d601f19601f820116820180604052508101906116179190612ae3565b60015b61169c573d806000811461164a576040519150601f19603f3d011682016040523d82523d6000602084013e61164f565b606091505b506000815103611694576040517f08c379a000000000000000000000000000000000000000000000000000000000815260040161168b90612811565b60405180910390fd5b805181602001fd5b63150b7a0260e01b7bffffffffffffffffffffffffffffffffffffffffffffffffffffffff1916817bffffffffffffffffffffffffffffffffffffffffffffffffffffffff1916149150506116f1565b600190505b949350505050565b606060008203611740576040518060400160405280600181526020017f30000000000000000000000000000000000000000000000000000000000000008152509050611854565b600082905060005b6000821461177257808061175b90612b10565b915050600a8261176b9190612b87565b9150611748565b60008167ffffffffffffffff81111561178e5761178d611cf4565b5b6040519080825280601f01601f1916602001820160405280156117c05781602001600182028036833780820191505090505b5090505b6000851461184d576001826117d991906126a9565b9150600a856117e89190612bb8565b60306117f491906126dd565b60f81b81838151811061180a57611809612be9565b5b60200101907effffffffffffffffffffffffffffffffffffffffffffffffffffffffffffff1916908160001a905350600a856118469190612b87565b94506117c4565b8093505050505b919050565b6000808273ffffffffffffffffffffffffffffffffffffffff163b119050919050565b82805461188890612035565b90600052602060002090601f0160209004810192826118aa57600085556118f1565b82601f106118c357805160ff19168380011785556118f1565b828001600101855582156118f1579182015b828111156118f05782518255916020019190600101906118d5565b5b5090506118fe9190611902565b5090565b5b8082111561191b576000816000905550600101611903565b5090565b6000604051905090565b600080fd5b600080fd5b60007fffffffff0000000000000000000000000000000000000000000000000000000082169050919050565b61196881611933565b811461197357600080fd5b50565b6000813590506119858161195f565b92915050565b6000602082840312156119a1576119a0611929565b5b60006119af84828501611976565b91505092915050565b60008115159050919050565b6119cd816119b8565b82525050565b60006020820190506119e860008301846119c4565b92915050565b600081519050919050565b600082825260208201905092915050565b60005b83811015611a28578082015181840152602081019050611a0d565b83811115611a37576000848401525b50505050565b6000601f19601f8301169050919050565b6000611a59826119ee565b611a6381856119f9565b9350611a73818560208601611a0a565b611a7c81611a3d565b840191505092915050565b60006020820190508181036000830152611aa18184611a4e565b905092915050565b6000819050919050565b611abc81611aa9565b8114611ac757600080fd5b50565b600081359050611ad981611ab3565b92915050565b600060208284031215611af557611af4611929565b5b6000611b0384828501611aca565b91505092915050565b600073ffffffffffffffffffffffffffffffffffffffff82169050919050565b6000611b3782611b0c565b9050919050565b611b4781611b2c565b82525050565b6000602082019050611b626000830184611b3e565b92915050565b611b7181611b2c565b8114611b7c57600080fd5b50565b600081359050611b8e81611b68565b92915050565b60008060408385031215611bab57611baa611929565b5b6000611bb985828601611b7f565b9250506020611bca85828601611aca565b9150509250929050565b600080600060608486031215611bed57611bec611929565b5b6000611bfb86828701611b7f565b9350506020611c0c86828701611b7f565b9250506040611c1d86828701611aca565b9150509250925092565b600060208284031215611c3d57611c3c611929565b5b6000611c4b84828501611b7f565b91505092915050565b611c5d81611aa9565b82525050565b6000602082019050611c786000830184611c54565b92915050565b611c87816119b8565b8114611c9257600080fd5b50565b600081359050611ca481611c7e565b92915050565b60008060408385031215611cc157611cc0611929565b5b6000611ccf85828601611b7f565b9250506020611ce085828601611c95565b9150509250929050565b600080fd5b600080fd5b7f4e487b7100000000000000000000000000000000000000000000000000000000600052604160045260246000fd5b611d2c82611a3d565b810181811067ffffffffffffffff82111715611d4b57611d4a611cf4565b5b80604052505050565b6000611d5e61191f565b9050611d6a8282611d23565b919050565b600067ffffffffffffffff821115611d8a57611d89611cf4565b5b611d9382611a3d565b9050602081019050919050565b82818337600083830152505050565b6000611dc2611dbd84611d6f565b611d54565b905082815260208101848484011115611dde57611ddd611cef565b5b611de9848285611da0565b509392505050565b600082601f830112611e0657611e05611cea565b5b8135611e16848260208601611daf565b91505092915050565b60008060008060808587031215611e3957611e38611929565b5b6000611e4787828801611b7f565b9450506020611e5887828801611b7f565b9350506040611e6987828801611aca565b925050606085013567ffffffffffffffff811115611e8a57611e8961192e565b5b611e9687828801611df1565b91505092959194509250565b60008060408385031215611eb957611eb8611929565b5b6000611ec785828601611b7f565b9250506020611ed885828601611b7f565b9150509250929050565b600067ffffffffffffffff821115611efd57611efc611cf4565b5b611f0682611a3d565b9050602081019050919050565b6000611f26611f2184611ee2565b611d54565b905082815260208101848484011115611f4257611f41611cef565b5b611f4d848285611da0565b509392505050565b600082601f830112611f6a57611f69611cea565b5b8135611f7a848260208601611f13565b91505092915050565b60008060008060808587031215611f9d57611f9c611929565b5b6000611fab87828801611b7f565b945050602085013567ffffffffffffffff811115611fcc57611fcb61192e565b5b611fd887828801611f55565b9350506040611fe987828801611aca565b9250506060611ffa87828801611c95565b91505092959194509250565b7f4e487b7100000000000000000000000000000000000000000000000000000000600052602260045260246000fd5b6000600282049050600182168061204d57607f821691505b6020821081036120605761205f612006565b5b50919050565b7f4552433732313a20617070726f76656420717565727920666f72206e6f6e657860008201527f697374656e7420746f6b656e0000000000000000000000000000000000000000602082015250565b60006120c2602c836119f9565b91506120cd82612066565b604082019050919050565b600060208201905081810360008301526120f1816120b5565b9050919050565b7f4552433732313a20617070726f76616c20746f2063757272656e74206f776e6560008201527f7200000000000000000000000000000000000000000000000000000000000000602082015250565b60006121546021836119f9565b915061215f826120f8565b604082019050919050565b6000602082019050818103600083015261218381612147565b9050919050565b7f4552433732313a20617070726f76652063616c6c6572206973206e6f74206f7760008201527f6e6572206e6f7220617070726f76656420666f7220616c6c0000000000000000602082015250565b60006121e66038836119f9565b91506121f18261218a565b604082019050919050565b60006020820190508181036000830152612215816121d9565b9050919050565b7f4552433732313a207472616e736665722063616c6c6572206973206e6f74206f60008201527f776e6572206e6f7220617070726f766564000000000000000000000000000000602082015250565b60006122786031836119f9565b91506122838261221c565b604082019050919050565b600060208201905081810360008301526122a78161226b565b9050919050565b7f4552433732313a206f776e657220717565727920666f72206e6f6e657869737460008201527f656e7420746f6b656e0000000000000000000000000000000000000000000000602082015250565b600061230a6029836119f9565b9150612315826122ae565b604082019050919050565b60006020820190508181036000830152612339816122fd565b9050919050565b7f4552433732313a2062616c616e636520717565727920666f7220746865207a6560008201527f726f206164647265737300000000000000000000000000000000000000000000602082015250565b600061239c602a836119f9565b91506123a782612340565b604082019050919050565b600060208201905081810360008301526123cb8161238f565b9050919050565b7f45524337323155524953746f726167653a2055524920717565727920666f722060008201527f6e6f6e6578697374656e7420746f6b656e000000000000000000000000000000602082015250565b600061242e6031836119f9565b9150612439826123d2565b604082019050919050565b6000602082019050818103600083015261245d81612421565b9050919050565b600081905092915050565b600061247a826119ee565b6124848185612464565b9350612494818560208601611a0a565b80840191505092915050565b60006124ac828561246f565b91506124b8828461246f565b91508190509392505050565b7f4552433732313a206f70657261746f7220717565727920666f72206e6f6e657860008201527f697374656e7420746f6b656e0000000000000000000000000000000000000000602082015250565b6000612520602c836119f9565b915061252b826124c4565b604082019050919050565b6000602082019050818103600083015261254f81612513565b9050919050565b7f4552433732313a207472616e736665722066726f6d20696e636f72726563742060008201527f6f776e6572000000000000000000000000000000000000000000000000000000602082015250565b60006125b26025836119f9565b91506125bd82612556565b604082019050919050565b600060208201905081810360008301526125e1816125a5565b9050919050565b7f4552433732313a207472616e7366657220746f20746865207a65726f2061646460008201527f7265737300000000000000000000000000000000000000000000000000000000602082015250565b60006126446024836119f9565b915061264f826125e8565b604082019050919050565b6000602082019050818103600083015261267381612637565b9050919050565b7f4e487b7100000000000000000000000000000000000000000000000000000000600052601160045260246000fd5b60006126b482611aa9565b91506126bf83611aa9565b9250828210156126d2576126d161267a565b5b828203905092915050565b60006126e882611aa9565b91506126f383611aa9565b9250827fffffffffffffffffffffffffffffffffffffffffffffffffffffffffffffffff038211156127285761272761267a565b5b828201905092915050565b7f4552433732313a20617070726f766520746f2063616c6c657200000000000000600082015250565b60006127696019836119f9565b915061277482612733565b602082019050919050565b600060208201905081810360008301526127988161275c565b9050919050565b7f4552433732313a207472616e7366657220746f206e6f6e20455243373231526560008201527f63656976657220696d706c656d656e7465720000000000000000000000000000602082015250565b60006127fb6032836119f9565b91506128068261279f565b604082019050919050565b6000602082019050818103600083015261282a816127ee565b9050919050565b7f4552433732314d657461646174613a2055524920717565727920666f72206e6f60008201527f6e6578697374656e7420746f6b656e0000000000000000000000000000000000602082015250565b600061288d602f836119f9565b915061289882612831565b604082019050919050565b600060208201905081810360008301526128bc81612880565b9050919050565b7f4552433732313a206d696e7420746f20746865207a65726f2061646472657373600082015250565b60006128f96020836119f9565b9150612904826128c3565b602082019050919050565b60006020820190508181036000830152612928816128ec565b9050919050565b7f4552433732313a20746f6b656e20616c7265616479206d696e74656400000000600082015250565b6000612965601c836119f9565b91506129708261292f565b602082019050919050565b6000602082019050818103600083015261299481612958565b9050919050565b7f45524337323155524953746f726167653a2055524920736574206f66206e6f6e60008201527f6578697374656e7420746f6b656e000000000000000000000000000000000000602082015250565b60006129f7602e836119f9565b9150612a028261299b565b604082019050919050565b60006020820190508181036000830152612a26816129ea565b9050919050565b600081519050919050565b600082825260208201905092915050565b6000612a5482612a2d565b612a5e8185612a38565b9350612a6e818560208601611a0a565b612a7781611a3d565b840191505092915050565b6000608082019050612a976000830187611b3e565b612aa46020830186611b3e565b612ab16040830185611c54565b8181036060830152612ac38184612a49565b905095945050505050565b600081519050612add8161195f565b92915050565b600060208284031215612af957612af8611929565b5b6000612b0784828501612ace565b91505092915050565b6000612b1b82611aa9565b91507fffffffffffffffffffffffffffffffffffffffffffffffffffffffffffffffff8203612b4d57612b4c61267a565b5b600182019050919050565b7f4e487b7100000000000000000000000000000000000000000000000000000000600052601260045260246000fd5b6000612b9282611aa9565b9150612b9d83611aa9565b925082612bad57612bac612b58565b5b828204905092915050565b6000612bc382611aa9565b9150612bce83611aa9565b925082612bde57612bdd612b58565b5b828206905092915050565b7f4e487b7100000000000000000000000000000000000000000000000000000000600052603260045260246000fdfea2646970667358221220f928cfcb63c5af1817b7e53e2bc4edd88c7b818a4004ffdd531e9bd56c23bcad64736f6c634300080d0033",
  "immutableReferences": {},
  "source": "// SPDX-License-Identifier: MIT\npragma solidity 0.8.13;\n \nimport \"../node_modules/@openzeppelin/contracts/token/ERC721/ERC721.sol\";\nimport \"../node_modules/@openzeppelin/contracts/token/ERC721/extensions/ERC721URIStorage.sol\";\nimport \"../node_modules/@openzeppelin/contracts/utils/Counters.sol\";\n \ncontract ArtistCollection is ERC721URIStorage {\n    using Counters for Counters.Counter;\n\n    Counters.Counter private _tokenIds;\n\n    struct MyNFT {\n        uint height;\n        bool hair;\n    }\n\n    MyNFT[] nfts;\n\n    constructor(string memory _name, string memory _symbol) ERC721(_name, _symbol) {}\n\n    function MintNFT(address _player, string memory _tokenURI, uint _height, bool _hair) public returns (uint256) {\n        _tokenIds.increment();\n\n        nfts.push(MyNFT(_height, _hair));\n        uint newItemId = _tokenIds.current();\n        _mint(_player, newItemId);\n        _setTokenURI(newItemId, _tokenURI);\n        return newItemId;\n    }\n}",
  "sourcePath": "/home/tomawok-work/prog/solidity/NFT-platform/contracts/ArtistCollection.sol",
  "compiler": {
    "name": "solc",
    "version": "0.8.13+commit.abaa5c0e.Emscripten.clang"
  },
  "schemaVersion": "3.4.6",
  "updatedAt": "2022-06-02T13:42:55.306Z",
  "devdoc": {
    "kind": "dev",
    "methods": {
      "approve(address,uint256)": {
        "details": "See {IERC721-approve}."
      },
      "balanceOf(address)": {
        "details": "See {IERC721-balanceOf}."
      },
      "getApproved(uint256)": {
        "details": "See {IERC721-getApproved}."
      },
      "isApprovedForAll(address,address)": {
        "details": "See {IERC721-isApprovedForAll}."
      },
      "name()": {
        "details": "See {IERC721Metadata-name}."
      },
      "ownerOf(uint256)": {
        "details": "See {IERC721-ownerOf}."
      },
      "safeTransferFrom(address,address,uint256)": {
        "details": "See {IERC721-safeTransferFrom}."
      },
      "safeTransferFrom(address,address,uint256,bytes)": {
        "details": "See {IERC721-safeTransferFrom}."
      },
      "setApprovalForAll(address,bool)": {
        "details": "See {IERC721-setApprovalForAll}."
      },
      "supportsInterface(bytes4)": {
        "details": "See {IERC165-supportsInterface}."
      },
      "symbol()": {
        "details": "See {IERC721Metadata-symbol}."
      },
      "tokenURI(uint256)": {
        "details": "See {IERC721Metadata-tokenURI}."
      },
      "transferFrom(address,address,uint256)": {
        "details": "See {IERC721-transferFrom}."
      }
    },
    "version": 1
  },
  "userdoc": {
    "kind": "user",
    "methods": {},
    "version": 1
  }
}