{
  "contractName": "NFT",
  "abi": [
    {
      "inputs": [
        {
          "internalType": "string",
          "name": "_name",
          "type": "string"
        },
        {
          "internalType": "string",
          "name": "_symbol",
          "type": "string"
        },
        {
          "internalType": "string",
          "name": "_baseUri",
          "type": "string"
        }
      ],
      "stateMutability": "nonpayable",
      "type": "constructor"
    },
    {
      "anonymous": false,
      "inputs": [
        {
          "indexed": true,
          "internalType": "address",
          "name": "owner",
          "type": "address"
        },
        {
          "indexed": true,
          "internalType": "address",
          "name": "approved",
          "type": "address"
        },
        {
          "indexed": true,
          "internalType": "uint256",
          "name": "tokenId",
          "type": "uint256"
        }
      ],
      "name": "Approval",
      "type": "event"
    },
    {
      "anonymous": false,
      "inputs": [
        {
          "indexed": true,
          "internalType": "address",
          "name": "owner",
          "type": "address"
        },
        {
          "indexed": true,
          "internalType": "address",
          "name": "operator",
          "type": "address"
        },
        {
          "indexed": false,
          "internalType": "bool",
          "name": "approved",
          "type": "bool"
        }
      ],
      "name": "ApprovalForAll",
      "type": "event"
    },
    {
      "anonymous": false,
      "inputs": [
        {
          "indexed": true,
          "internalType": "address",
          "name": "previousOwner",
          "type": "address"
        },
        {
          "indexed": true,
          "internalType": "address",
          "name": "newOwner",
          "type": "address"
        }
      ],
      "name": "OwnershipTransferred",
      "type": "event"
    },
    {
      "anonymous": false,
      "inputs": [
        {
          "indexed": true,
          "internalType": "address",
          "name": "from",
          "type": "address"
        },
        {
          "indexed": true,
          "internalType": "address",
          "name": "to",
          "type": "address"
        },
        {
          "indexed": true,
          "internalType": "uint256",
          "name": "tokenId",
          "type": "uint256"
        }
      ],
      "name": "Transfer",
      "type": "event"
    },
    {
      "inputs": [
        {
          "internalType": "address",
          "name": "to",
          "type": "address"
        },
        {
          "internalType": "uint256",
          "name": "tokenId",
          "type": "uint256"
        }
      ],
      "name": "approve",
      "outputs": [],
      "stateMutability": "nonpayable",
      "type": "function"
    },
    {
      "inputs": [
        {
          "internalType": "address",
          "name": "owner",
          "type": "address"
        }
      ],
      "name": "balanceOf",
      "outputs": [
        {
          "internalType": "uint256",
          "name": "",
          "type": "uint256"
        }
      ],
      "stateMutability": "view",
      "type": "function"
    },
    {
      "inputs": [],
      "name": "baseURI",
      "outputs": [
        {
          "internalType": "string",
          "name": "",
          "type": "string"
        }
      ],
      "stateMutability": "view",
      "type": "function"
    },
    {
      "inputs": [
        {
          "internalType": "uint256",
          "name": "tokenId",
          "type": "uint256"
        }
      ],
      "name": "getApproved",
      "outputs": [
        {
          "internalType": "address",
          "name": "",
          "type": "address"
        }
      ],
      "stateMutability": "view",
      "type": "function"
    },
    {
      "inputs": [
        {
          "internalType": "address",
          "name": "owner",
          "type": "address"
        },
        {
          "internalType": "address",
          "name": "operator",
          "type": "address"
        }
      ],
      "name": "isApprovedForAll",
      "outputs": [
        {
          "internalType": "bool",
          "name": "",
          "type": "bool"
        }
      ],
      "stateMutability": "view",
      "type": "function"
    },
    {
      "inputs": [],
      "name": "name",
      "outputs": [
        {
          "internalType": "string",
          "name": "",
          "type": "string"
        }
      ],
      "stateMutability": "view",
      "type": "function"
    },
    {
      "inputs": [],
      "name": "owner",
      "outputs": [
        {
          "internalType": "address",
          "name": "",
          "type": "address"
        }
      ],
      "stateMutability": "view",
      "type": "function"
    },
    {
      "inputs": [
        {
          "internalType": "uint256",
          "name": "tokenId",
          "type": "uint256"
        }
      ],
      "name": "ownerOf",
      "outputs": [
        {
          "internalType": "address",
          "name": "",
          "type": "address"
        }
      ],
      "stateMutability": "view",
      "type": "function"
    },
    {
      "inputs": [],
      "name": "renounceOwnership",
      "outputs": [],
      "stateMutability": "nonpayable",
      "type": "function"
    },
    {
      "inputs": [
        {
          "internalType": "address",
          "name": "from",
          "type": "address"
        },
        {
          "internalType": "address",
          "name": "to",
          "type": "address"
        },
        {
          "internalType": "uint256",
          "name": "tokenId",
          "type": "uint256"
        }
      ],
      "name": "safeTransferFrom",
      "outputs": [],
      "stateMutability": "nonpayable",
      "type": "function"
    },
    {
      "inputs": [
        {
          "internalType": "address",
          "name": "from",
          "type": "address"
        },
        {
          "internalType": "address",
          "name": "to",
          "type": "address"
        },
        {
          "internalType": "uint256",
          "name": "tokenId",
          "type": "uint256"
        },
        {
          "internalType": "bytes",
          "name": "_data",
          "type": "bytes"
        }
      ],
      "name": "safeTransferFrom",
      "outputs": [],
      "stateMutability": "nonpayable",
      "type": "function"
    },
    {
      "inputs": [
        {
          "internalType": "address",
          "name": "operator",
          "type": "address"
        },
        {
          "internalType": "bool",
          "name": "approved",
          "type": "bool"
        }
      ],
      "name": "setApprovalForAll",
      "outputs": [],
      "stateMutability": "nonpayable",
      "type": "function"
    },
    {
      "inputs": [
        {
          "internalType": "bytes4",
          "name": "interfaceId",
          "type": "bytes4"
        }
      ],
      "name": "supportsInterface",
      "outputs": [
        {
          "internalType": "bool",
          "name": "",
          "type": "bool"
        }
      ],
      "stateMutability": "view",
      "type": "function"
    },
    {
      "inputs": [],
      "name": "symbol",
      "outputs": [
        {
          "internalType": "string",
          "name": "",
          "type": "string"
        }
      ],
      "stateMutability": "view",
      "type": "function"
    },
    {
      "inputs": [],
      "name": "tokenCount",
      "outputs": [
        {
          "internalType": "uint256",
          "name": "",
          "type": "uint256"
        }
      ],
      "stateMutability": "view",
      "type": "function"
    },
    {
      "inputs": [
        {
          "internalType": "uint256",
          "name": "tokenId",
          "type": "uint256"
        }
      ],
      "name": "tokenURI",
      "outputs": [
        {
          "internalType": "string",
          "name": "",
          "type": "string"
        }
      ],
      "stateMutability": "view",
      "type": "function"
    },
    {
      "inputs": [
        {
          "internalType": "address",
          "name": "from",
          "type": "address"
        },
        {
          "internalType": "address",
          "name": "to",
          "type": "address"
        },
        {
          "internalType": "uint256",
          "name": "tokenId",
          "type": "uint256"
        }
      ],
      "name": "transferFrom",
      "outputs": [],
      "stateMutability": "nonpayable",
      "type": "function"
    },
    {
      "inputs": [
        {
          "internalType": "address",
          "name": "newOwner",
          "type": "address"
        }
      ],
      "name": "transferOwnership",
      "outputs": [],
      "stateMutability": "nonpayable",
      "type": "function"
    },
    {
      "inputs": [
        {
          "internalType": "string",
          "name": "_uri",
          "type": "string"
        }
      ],
      "name": "setBaseUri",
      "outputs": [],
      "stateMutability": "nonpayable",
      "type": "function"
    },
    {
      "inputs": [],
      "name": "mint",
      "outputs": [],
      "stateMutability": "nonpayable",
      "type": "function"
    },
    {
      "inputs": [],
      "name": "getCount",
      "outputs": [
        {
          "internalType": "uint256",
          "name": "",
          "type": "uint256"
        }
      ],
      "stateMutability": "view",
      "type": "function"
    }
  ],
  "bytecode": "0x60806040523480156200001157600080fd5b50604051620035be380380620035be833981810160405281019062000037919062000497565b82828160009080519060200190620000519291906200024a565b5080600190805190602001906200006a9291906200024a565b5050506200008d62000081620000a760201b60201c565b620000af60201b60201c565b6200009e816200017560201b60201c565b50505062000637565b600033905090565b6000600660009054906101000a900473ffffffffffffffffffffffffffffffffffffffff16905081600660006101000a81548173ffffffffffffffffffffffffffffffffffffffff021916908373ffffffffffffffffffffffffffffffffffffffff1602179055508173ffffffffffffffffffffffffffffffffffffffff168173ffffffffffffffffffffffffffffffffffffffff167f8be0079c531659141344cd1fd0a4f28419497f9722a3daafe3b4186f6b6457e060405160405180910390a35050565b62000185620000a760201b60201c565b73ffffffffffffffffffffffffffffffffffffffff16620001ab6200022060201b60201c565b73ffffffffffffffffffffffffffffffffffffffff161462000204576040517f08c379a0000000000000000000000000000000000000000000000000000000008152600401620001fb90620005b1565b60405180910390fd5b80600790805190602001906200021c9291906200024a565b5050565b6000600660009054906101000a900473ffffffffffffffffffffffffffffffffffffffff16905090565b828054620002589062000602565b90600052602060002090601f0160209004810192826200027c5760008555620002c8565b82601f106200029757805160ff1916838001178555620002c8565b82800160010185558215620002c8579182015b82811115620002c7578251825591602001919060010190620002aa565b5b509050620002d79190620002db565b5090565b5b80821115620002f6576000816000905550600101620002dc565b5090565b6000604051905090565b600080fd5b600080fd5b600080fd5b600080fd5b6000601f19601f8301169050919050565b7f4e487b7100000000000000000000000000000000000000000000000000000000600052604160045260246000fd5b620003638262000318565b810181811067ffffffffffffffff8211171562000385576200038462000329565b5b80604052505050565b60006200039a620002fa565b9050620003a8828262000358565b919050565b600067ffffffffffffffff821115620003cb57620003ca62000329565b5b620003d68262000318565b9050602081019050919050565b60005b8381101562000403578082015181840152602081019050620003e6565b8381111562000413576000848401525b50505050565b6000620004306200042a84620003ad565b6200038e565b9050828152602081018484840111156200044f576200044e62000313565b5b6200045c848285620003e3565b509392505050565b600082601f8301126200047c576200047b6200030e565b5b81516200048e84826020860162000419565b91505092915050565b600080600060608486031215620004b357620004b262000304565b5b600084015167ffffffffffffffff811115620004d457620004d362000309565b5b620004e28682870162000464565b935050602084015167ffffffffffffffff81111562000506576200050562000309565b5b620005148682870162000464565b925050604084015167ffffffffffffffff81111562000538576200053762000309565b5b620005468682870162000464565b9150509250925092565b600082825260208201905092915050565b7f4f776e61626c653a2063616c6c6572206973206e6f7420746865206f776e6572600082015250565b60006200059960208362000550565b9150620005a68262000561565b602082019050919050565b60006020820190508181036000830152620005cc816200058a565b9050919050565b7f4e487b7100000000000000000000000000000000000000000000000000000000600052602260045260246000fd5b600060028204905060018216806200061b57607f821691505b602082108103620006315762000630620005d3565b5b50919050565b612f7780620006476000396000f3fe608060405234801561001057600080fd5b50600436106101375760003560e01c8063715018a6116100b8578063a22cb4651161007c578063a22cb46514610316578063a87d942c14610332578063b88d4fde14610350578063c87b56dd1461036c578063e985e9c51461039c578063f2fde38b146103cc57610137565b8063715018a6146102965780638da5cb5b146102a057806395d89b41146102be5780639f181b5e146102dc578063a0bcfc7f146102fa57610137565b806323b872dd116100ff57806323b872dd146101e057806342842e0e146101fc5780636352211e146102185780636c0360eb1461024857806370a082311461026657610137565b806301ffc9a71461013c57806306fdde031461016c578063081812fc1461018a578063095ea7b3146101ba5780631249c58b146101d6575b600080fd5b61015660048036038101906101519190611d14565b6103e8565b6040516101639190611d5c565b60405180910390f35b6101746104ca565b6040516101819190611e10565b60405180910390f35b6101a4600480360381019061019f9190611e68565b61055c565b6040516101b19190611ed6565b60405180910390f35b6101d460048036038101906101cf9190611f1d565b6105e1565b005b6101de6106f8565b005b6101fa60048036038101906101f59190611f5d565b61079a565b005b61021660048036038101906102119190611f5d565b6107fa565b005b610232600480360381019061022d9190611e68565b61081a565b60405161023f9190611ed6565b60405180910390f35b6102506108cb565b60405161025d9190611e10565b60405180910390f35b610280600480360381019061027b9190611fb0565b610959565b60405161028d9190611fec565b60405180910390f35b61029e610a10565b005b6102a8610a98565b6040516102b59190611ed6565b60405180910390f35b6102c6610ac2565b6040516102d39190611e10565b60405180910390f35b6102e4610b54565b6040516102f19190611fec565b60405180910390f35b610314600480360381019061030f919061213c565b610b5a565b005b610330600480360381019061032b91906121b1565b610bf0565b005b61033a610c06565b6040516103479190611fec565b60405180910390f35b61036a60048036038101906103659190612292565b610c10565b005b61038660048036038101906103819190611e68565b610c72565b6040516103939190611e10565b60405180910390f35b6103b660048036038101906103b19190612315565b610d19565b6040516103c39190611d5c565b60405180910390f35b6103e660048036038101906103e19190611fb0565b610dad565b005b60007f80ac58cd000000000000000000000000000000000000000000000000000000007bffffffffffffffffffffffffffffffffffffffffffffffffffffffff1916827bffffffffffffffffffffffffffffffffffffffffffffffffffffffff191614806104b357507f5b5e139f000000000000000000000000000000000000000000000000000000007bffffffffffffffffffffffffffffffffffffffffffffffffffffffff1916827bffffffffffffffffffffffffffffffffffffffffffffffffffffffff1916145b806104c357506104c282610ea4565b5b9050919050565b6060600080546104d990612384565b80601f016020809104026020016040519081016040528092919081815260200182805461050590612384565b80156105525780601f1061052757610100808354040283529160200191610552565b820191906000526020600020905b81548152906001019060200180831161053557829003601f168201915b5050505050905090565b600061056782610f0e565b6105a6576040517f08c379a000000000000000000000000000000000000000000000000000000000815260040161059d90612427565b60405180910390fd5b6004600083815260200190815260200160002060009054906101000a900473ffffffffffffffffffffffffffffffffffffffff169050919050565b60006105ec8261081a565b90508073ffffffffffffffffffffffffffffffffffffffff168373ffffffffffffffffffffffffffffffffffffffff160361065c576040517f08c379a0000000000000000000000000000000000000000000000000000000008152600401610653906124b9565b60405180910390fd5b8073ffffffffffffffffffffffffffffffffffffffff1661067b610f7a565b73ffffffffffffffffffffffffffffffffffffffff1614806106aa57506106a9816106a4610f7a565b610d19565b5b6106e9576040517f08c379a00000000000000000000000000000000000000000000000000000000081526004016106e09061254b565b60405180910390fd5b6106f38383610f82565b505050565b610700610f7a565b73ffffffffffffffffffffffffffffffffffffffff1661071e610a98565b73ffffffffffffffffffffffffffffffffffffffff1614610774576040517f08c379a000000000000000000000000000000000000000000000000000000000815260040161076b906125b7565b60405180910390fd5b6008600081548092919061078790612606565b91905055506107983360085461103b565b565b6107ab6107a5610f7a565b82611059565b6107ea576040517f08c379a00000000000000000000000000000000000000000000000000000000081526004016107e1906126c0565b60405180910390fd5b6107f5838383611137565b505050565b61081583838360405180602001604052806000815250610c10565b505050565b6000806002600084815260200190815260200160002060009054906101000a900473ffffffffffffffffffffffffffffffffffffffff169050600073ffffffffffffffffffffffffffffffffffffffff168173ffffffffffffffffffffffffffffffffffffffff16036108c2576040517f08c379a00000000000000000000000000000000000000000000000000000000081526004016108b990612752565b60405180910390fd5b80915050919050565b600780546108d890612384565b80601f016020809104026020016040519081016040528092919081815260200182805461090490612384565b80156109515780601f1061092657610100808354040283529160200191610951565b820191906000526020600020905b81548152906001019060200180831161093457829003601f168201915b505050505081565b60008073ffffffffffffffffffffffffffffffffffffffff168273ffffffffffffffffffffffffffffffffffffffff16036109c9576040517f08c379a00000000000000000000000000000000000000000000000000000000081526004016109c0906127e4565b60405180910390fd5b600360008373ffffffffffffffffffffffffffffffffffffffff1673ffffffffffffffffffffffffffffffffffffffff168152602001908152602001600020549050919050565b610a18610f7a565b73ffffffffffffffffffffffffffffffffffffffff16610a36610a98565b73ffffffffffffffffffffffffffffffffffffffff1614610a8c576040517f08c379a0000000000000000000000000000000000000000000000000000000008152600401610a83906125b7565b60405180910390fd5b610a96600061139d565b565b6000600660009054906101000a900473ffffffffffffffffffffffffffffffffffffffff16905090565b606060018054610ad190612384565b80601f0160208091040260200160405190810160405280929190818152602001828054610afd90612384565b8015610b4a5780601f10610b1f57610100808354040283529160200191610b4a565b820191906000526020600020905b815481529060010190602001808311610b2d57829003601f168201915b5050505050905090565b60085481565b610b62610f7a565b73ffffffffffffffffffffffffffffffffffffffff16610b80610a98565b73ffffffffffffffffffffffffffffffffffffffff1614610bd6576040517f08c379a0000000000000000000000000000000000000000000000000000000008152600401610bcd906125b7565b60405180910390fd5b8060079080519060200190610bec929190611c05565b5050565b610c02610bfb610f7a565b8383611463565b5050565b6000600854905090565b610c21610c1b610f7a565b83611059565b610c60576040517f08c379a0000000000000000000000000000000000000000000000000000000008152600401610c57906126c0565b60405180910390fd5b610c6c848484846115cf565b50505050565b6060610c7d82610f0e565b610cbc576040517f08c379a0000000000000000000000000000000000000000000000000000000008152600401610cb390612876565b60405180910390fd5b6000610cc661162b565b90506000815111610ce65760405180602001604052806000815250610d11565b80610cf0846116bd565b604051602001610d019291906128d2565b6040516020818303038152906040525b915050919050565b6000600560008473ffffffffffffffffffffffffffffffffffffffff1673ffffffffffffffffffffffffffffffffffffffff16815260200190815260200160002060008373ffffffffffffffffffffffffffffffffffffffff1673ffffffffffffffffffffffffffffffffffffffff16815260200190815260200160002060009054906101000a900460ff16905092915050565b610db5610f7a565b73ffffffffffffffffffffffffffffffffffffffff16610dd3610a98565b73ffffffffffffffffffffffffffffffffffffffff1614610e29576040517f08c379a0000000000000000000000000000000000000000000000000000000008152600401610e20906125b7565b60405180910390fd5b600073ffffffffffffffffffffffffffffffffffffffff168173ffffffffffffffffffffffffffffffffffffffff1603610e98576040517f08c379a0000000000000000000000000000000000000000000000000000000008152600401610e8f90612968565b60405180910390fd5b610ea18161139d565b50565b60007f01ffc9a7000000000000000000000000000000000000000000000000000000007bffffffffffffffffffffffffffffffffffffffffffffffffffffffff1916827bffffffffffffffffffffffffffffffffffffffffffffffffffffffff1916149050919050565b60008073ffffffffffffffffffffffffffffffffffffffff166002600084815260200190815260200160002060009054906101000a900473ffffffffffffffffffffffffffffffffffffffff1673ffffffffffffffffffffffffffffffffffffffff1614159050919050565b600033905090565b816004600083815260200190815260200160002060006101000a81548173ffffffffffffffffffffffffffffffffffffffff021916908373ffffffffffffffffffffffffffffffffffffffff160217905550808273ffffffffffffffffffffffffffffffffffffffff16610ff58361081a565b73ffffffffffffffffffffffffffffffffffffffff167f8c5be1e5ebec7d5bd14f71427d1e84f3dd0314c0f7b2291e5b200ac8c7c3b92560405160405180910390a45050565b61105582826040518060200160405280600081525061181d565b5050565b600061106482610f0e565b6110a3576040517f08c379a000000000000000000000000000000000000000000000000000000000815260040161109a906129fa565b60405180910390fd5b60006110ae8361081a565b90508073ffffffffffffffffffffffffffffffffffffffff168473ffffffffffffffffffffffffffffffffffffffff1614806110f057506110ef8185610d19565b5b8061112e57508373ffffffffffffffffffffffffffffffffffffffff166111168461055c565b73ffffffffffffffffffffffffffffffffffffffff16145b91505092915050565b8273ffffffffffffffffffffffffffffffffffffffff166111578261081a565b73ffffffffffffffffffffffffffffffffffffffff16146111ad576040517f08c379a00000000000000000000000000000000000000000000000000000000081526004016111a490612a8c565b60405180910390fd5b600073ffffffffffffffffffffffffffffffffffffffff168273ffffffffffffffffffffffffffffffffffffffff160361121c576040517f08c379a000000000000000000000000000000000000000000000000000000000815260040161121390612b1e565b60405180910390fd5b611227838383611878565b611232600082610f82565b6001600360008573ffffffffffffffffffffffffffffffffffffffff1673ffffffffffffffffffffffffffffffffffffffff16815260200190815260200160002060008282546112829190612b3e565b925050819055506001600360008473ffffffffffffffffffffffffffffffffffffffff1673ffffffffffffffffffffffffffffffffffffffff16815260200190815260200160002060008282546112d99190612b72565b92505081905550816002600083815260200190815260200160002060006101000a81548173ffffffffffffffffffffffffffffffffffffffff021916908373ffffffffffffffffffffffffffffffffffffffff160217905550808273ffffffffffffffffffffffffffffffffffffffff168473ffffffffffffffffffffffffffffffffffffffff167fddf252ad1be2c89b69c2b068fc378daa952ba7f163c4a11628f55a4df523b3ef60405160405180910390a461139883838361187d565b505050565b6000600660009054906101000a900473ffffffffffffffffffffffffffffffffffffffff16905081600660006101000a81548173ffffffffffffffffffffffffffffffffffffffff021916908373ffffffffffffffffffffffffffffffffffffffff1602179055508173ffffffffffffffffffffffffffffffffffffffff168173ffffffffffffffffffffffffffffffffffffffff167f8be0079c531659141344cd1fd0a4f28419497f9722a3daafe3b4186f6b6457e060405160405180910390a35050565b8173ffffffffffffffffffffffffffffffffffffffff168373ffffffffffffffffffffffffffffffffffffffff16036114d1576040517f08c379a00000000000000000000000000000000000000000000000000000000081526004016114c890612c14565b60405180910390fd5b80600560008573ffffffffffffffffffffffffffffffffffffffff1673ffffffffffffffffffffffffffffffffffffffff16815260200190815260200160002060008473ffffffffffffffffffffffffffffffffffffffff1673ffffffffffffffffffffffffffffffffffffffff16815260200190815260200160002060006101000a81548160ff0219169083151502179055508173ffffffffffffffffffffffffffffffffffffffff168373ffffffffffffffffffffffffffffffffffffffff167f17307eab39ab6107e8899845ad3d59bd9653f200f220920489ca2b5937696c31836040516115c29190611d5c565b60405180910390a3505050565b6115da848484611137565b6115e684848484611882565b611625576040517f08c379a000000000000000000000000000000000000000000000000000000000815260040161161c90612ca6565b60405180910390fd5b50505050565b60606007805461163a90612384565b80601f016020809104026020016040519081016040528092919081815260200182805461166690612384565b80156116b35780601f10611688576101008083540402835291602001916116b3565b820191906000526020600020905b81548152906001019060200180831161169657829003601f168201915b5050505050905090565b606060008203611704576040518060400160405280600181526020017f30000000000000000000000000000000000000000000000000000000000000008152509050611818565b600082905060005b6000821461173657808061171f90612606565b915050600a8261172f9190612cf5565b915061170c565b60008167ffffffffffffffff81111561175257611751612011565b5b6040519080825280601f01601f1916602001820160405280156117845781602001600182028036833780820191505090505b5090505b600085146118115760018261179d9190612b3e565b9150600a856117ac9190612d26565b60306117b89190612b72565b60f81b8183815181106117ce576117cd612d57565b5b60200101907effffffffffffffffffffffffffffffffffffffffffffffffffffffffffffff1916908160001a905350600a8561180a9190612cf5565b9450611788565b8093505050505b919050565b6118278383611a09565b6118346000848484611882565b611873576040517f08c379a000000000000000000000000000000000000000000000000000000000815260040161186a90612ca6565b60405180910390fd5b505050565b505050565b505050565b60006118a38473ffffffffffffffffffffffffffffffffffffffff16611be2565b156119fc578373ffffffffffffffffffffffffffffffffffffffff1663150b7a026118cc610f7a565b8786866040518563ffffffff1660e01b81526004016118ee9493929190612ddb565b6020604051808303816000875af192505050801561192a57506040513d601f19601f820116820180604052508101906119279190612e3c565b60015b6119ac573d806000811461195a576040519150601f19603f3d011682016040523d82523d6000602084013e61195f565b606091505b5060008151036119a4576040517f08c379a000000000000000000000000000000000000000000000000000000000815260040161199b90612ca6565b60405180910390fd5b805181602001fd5b63150b7a0260e01b7bffffffffffffffffffffffffffffffffffffffffffffffffffffffff1916817bffffffffffffffffffffffffffffffffffffffffffffffffffffffff191614915050611a01565b600190505b949350505050565b600073ffffffffffffffffffffffffffffffffffffffff168273ffffffffffffffffffffffffffffffffffffffff1603611a78576040517f08c379a0000000000000000000000000000000000000000000000000000000008152600401611a6f90612eb5565b60405180910390fd5b611a8181610f0e565b15611ac1576040517f08c379a0000000000000000000000000000000000000000000000000000000008152600401611ab890612f21565b60405180910390fd5b611acd60008383611878565b6001600360008473ffffffffffffffffffffffffffffffffffffffff1673ffffffffffffffffffffffffffffffffffffffff1681526020019081526020016000206000828254611b1d9190612b72565b92505081905550816002600083815260200190815260200160002060006101000a81548173ffffffffffffffffffffffffffffffffffffffff021916908373ffffffffffffffffffffffffffffffffffffffff160217905550808273ffffffffffffffffffffffffffffffffffffffff16600073ffffffffffffffffffffffffffffffffffffffff167fddf252ad1be2c89b69c2b068fc378daa952ba7f163c4a11628f55a4df523b3ef60405160405180910390a4611bde6000838361187d565b5050565b6000808273ffffffffffffffffffffffffffffffffffffffff163b119050919050565b828054611c1190612384565b90600052602060002090601f016020900481019282611c335760008555611c7a565b82601f10611c4c57805160ff1916838001178555611c7a565b82800160010185558215611c7a579182015b82811115611c79578251825591602001919060010190611c5e565b5b509050611c879190611c8b565b5090565b5b80821115611ca4576000816000905550600101611c8c565b5090565b6000604051905090565b600080fd5b600080fd5b60007fffffffff0000000000000000000000000000000000000000000000000000000082169050919050565b611cf181611cbc565b8114611cfc57600080fd5b50565b600081359050611d0e81611ce8565b92915050565b600060208284031215611d2a57611d29611cb2565b5b6000611d3884828501611cff565b91505092915050565b60008115159050919050565b611d5681611d41565b82525050565b6000602082019050611d716000830184611d4d565b92915050565b600081519050919050565b600082825260208201905092915050565b60005b83811015611db1578082015181840152602081019050611d96565b83811115611dc0576000848401525b50505050565b6000601f19601f8301169050919050565b6000611de282611d77565b611dec8185611d82565b9350611dfc818560208601611d93565b611e0581611dc6565b840191505092915050565b60006020820190508181036000830152611e2a8184611dd7565b905092915050565b6000819050919050565b611e4581611e32565b8114611e5057600080fd5b50565b600081359050611e6281611e3c565b92915050565b600060208284031215611e7e57611e7d611cb2565b5b6000611e8c84828501611e53565b91505092915050565b600073ffffffffffffffffffffffffffffffffffffffff82169050919050565b6000611ec082611e95565b9050919050565b611ed081611eb5565b82525050565b6000602082019050611eeb6000830184611ec7565b92915050565b611efa81611eb5565b8114611f0557600080fd5b50565b600081359050611f1781611ef1565b92915050565b60008060408385031215611f3457611f33611cb2565b5b6000611f4285828601611f08565b9250506020611f5385828601611e53565b9150509250929050565b600080600060608486031215611f7657611f75611cb2565b5b6000611f8486828701611f08565b9350506020611f9586828701611f08565b9250506040611fa686828701611e53565b9150509250925092565b600060208284031215611fc657611fc5611cb2565b5b6000611fd484828501611f08565b91505092915050565b611fe681611e32565b82525050565b60006020820190506120016000830184611fdd565b92915050565b600080fd5b600080fd5b7f4e487b7100000000000000000000000000000000000000000000000000000000600052604160045260246000fd5b61204982611dc6565b810181811067ffffffffffffffff8211171561206857612067612011565b5b80604052505050565b600061207b611ca8565b90506120878282612040565b919050565b600067ffffffffffffffff8211156120a7576120a6612011565b5b6120b082611dc6565b9050602081019050919050565b82818337600083830152505050565b60006120df6120da8461208c565b612071565b9050828152602081018484840111156120fb576120fa61200c565b5b6121068482856120bd565b509392505050565b600082601f83011261212357612122612007565b5b81356121338482602086016120cc565b91505092915050565b60006020828403121561215257612151611cb2565b5b600082013567ffffffffffffffff8111156121705761216f611cb7565b5b61217c8482850161210e565b91505092915050565b61218e81611d41565b811461219957600080fd5b50565b6000813590506121ab81612185565b92915050565b600080604083850312156121c8576121c7611cb2565b5b60006121d685828601611f08565b92505060206121e78582860161219c565b9150509250929050565b600067ffffffffffffffff82111561220c5761220b612011565b5b61221582611dc6565b9050602081019050919050565b6000612235612230846121f1565b612071565b9050828152602081018484840111156122515761225061200c565b5b61225c8482856120bd565b509392505050565b600082601f83011261227957612278612007565b5b8135612289848260208601612222565b91505092915050565b600080600080608085870312156122ac576122ab611cb2565b5b60006122ba87828801611f08565b94505060206122cb87828801611f08565b93505060406122dc87828801611e53565b925050606085013567ffffffffffffffff8111156122fd576122fc611cb7565b5b61230987828801612264565b91505092959194509250565b6000806040838503121561232c5761232b611cb2565b5b600061233a85828601611f08565b925050602061234b85828601611f08565b9150509250929050565b7f4e487b7100000000000000000000000000000000000000000000000000000000600052602260045260246000fd5b6000600282049050600182168061239c57607f821691505b6020821081036123af576123ae612355565b5b50919050565b7f4552433732313a20617070726f76656420717565727920666f72206e6f6e657860008201527f697374656e7420746f6b656e0000000000000000000000000000000000000000602082015250565b6000612411602c83611d82565b915061241c826123b5565b604082019050919050565b6000602082019050818103600083015261244081612404565b9050919050565b7f4552433732313a20617070726f76616c20746f2063757272656e74206f776e6560008201527f7200000000000000000000000000000000000000000000000000000000000000602082015250565b60006124a3602183611d82565b91506124ae82612447565b604082019050919050565b600060208201905081810360008301526124d281612496565b9050919050565b7f4552433732313a20617070726f76652063616c6c6572206973206e6f74206f7760008201527f6e6572206e6f7220617070726f76656420666f7220616c6c0000000000000000602082015250565b6000612535603883611d82565b9150612540826124d9565b604082019050919050565b6000602082019050818103600083015261256481612528565b9050919050565b7f4f776e61626c653a2063616c6c6572206973206e6f7420746865206f776e6572600082015250565b60006125a1602083611d82565b91506125ac8261256b565b602082019050919050565b600060208201905081810360008301526125d081612594565b9050919050565b7f4e487b7100000000000000000000000000000000000000000000000000000000600052601160045260246000fd5b600061261182611e32565b91507fffffffffffffffffffffffffffffffffffffffffffffffffffffffffffffffff8203612643576126426125d7565b5b600182019050919050565b7f4552433732313a207472616e736665722063616c6c6572206973206e6f74206f60008201527f776e6572206e6f7220617070726f766564000000000000000000000000000000602082015250565b60006126aa603183611d82565b91506126b58261264e565b604082019050919050565b600060208201905081810360008301526126d98161269d565b9050919050565b7f4552433732313a206f776e657220717565727920666f72206e6f6e657869737460008201527f656e7420746f6b656e0000000000000000000000000000000000000000000000602082015250565b600061273c602983611d82565b9150612747826126e0565b604082019050919050565b6000602082019050818103600083015261276b8161272f565b9050919050565b7f4552433732313a2062616c616e636520717565727920666f7220746865207a6560008201527f726f206164647265737300000000000000000000000000000000000000000000602082015250565b60006127ce602a83611d82565b91506127d982612772565b604082019050919050565b600060208201905081810360008301526127fd816127c1565b9050919050565b7f4552433732314d657461646174613a2055524920717565727920666f72206e6f60008201527f6e6578697374656e7420746f6b656e0000000000000000000000000000000000602082015250565b6000612860602f83611d82565b915061286b82612804565b604082019050919050565b6000602082019050818103600083015261288f81612853565b9050919050565b600081905092915050565b60006128ac82611d77565b6128b68185612896565b93506128c6818560208601611d93565b80840191505092915050565b60006128de82856128a1565b91506128ea82846128a1565b91508190509392505050565b7f4f776e61626c653a206e6577206f776e657220697320746865207a65726f206160008201527f6464726573730000000000000000000000000000000000000000000000000000602082015250565b6000612952602683611d82565b915061295d826128f6565b604082019050919050565b6000602082019050818103600083015261298181612945565b9050919050565b7f4552433732313a206f70657261746f7220717565727920666f72206e6f6e657860008201527f697374656e7420746f6b656e0000000000000000000000000000000000000000602082015250565b60006129e4602c83611d82565b91506129ef82612988565b604082019050919050565b60006020820190508181036000830152612a13816129d7565b9050919050565b7f4552433732313a207472616e736665722066726f6d20696e636f72726563742060008201527f6f776e6572000000000000000000000000000000000000000000000000000000602082015250565b6000612a76602583611d82565b9150612a8182612a1a565b604082019050919050565b60006020820190508181036000830152612aa581612a69565b9050919050565b7f4552433732313a207472616e7366657220746f20746865207a65726f2061646460008201527f7265737300000000000000000000000000000000000000000000000000000000602082015250565b6000612b08602483611d82565b9150612b1382612aac565b604082019050919050565b60006020820190508181036000830152612b3781612afb565b9050919050565b6000612b4982611e32565b9150612b5483611e32565b925082821015612b6757612b666125d7565b5b828203905092915050565b6000612b7d82611e32565b9150612b8883611e32565b9250827fffffffffffffffffffffffffffffffffffffffffffffffffffffffffffffffff03821115612bbd57612bbc6125d7565b5b828201905092915050565b7f4552433732313a20617070726f766520746f2063616c6c657200000000000000600082015250565b6000612bfe601983611d82565b9150612c0982612bc8565b602082019050919050565b60006020820190508181036000830152612c2d81612bf1565b9050919050565b7f4552433732313a207472616e7366657220746f206e6f6e20455243373231526560008201527f63656976657220696d706c656d656e7465720000000000000000000000000000602082015250565b6000612c90603283611d82565b9150612c9b82612c34565b604082019050919050565b60006020820190508181036000830152612cbf81612c83565b9050919050565b7f4e487b7100000000000000000000000000000000000000000000000000000000600052601260045260246000fd5b6000612d0082611e32565b9150612d0b83611e32565b925082612d1b57612d1a612cc6565b5b828204905092915050565b6000612d3182611e32565b9150612d3c83611e32565b925082612d4c57612d4b612cc6565b5b828206905092915050565b7f4e487b7100000000000000000000000000000000000000000000000000000000600052603260045260246000fd5b600081519050919050565b600082825260208201905092915050565b6000612dad82612d86565b612db78185612d91565b9350612dc7818560208601611d93565b612dd081611dc6565b840191505092915050565b6000608082019050612df06000830187611ec7565b612dfd6020830186611ec7565b612e0a6040830185611fdd565b8181036060830152612e1c8184612da2565b905095945050505050565b600081519050612e3681611ce8565b92915050565b600060208284031215612e5257612e51611cb2565b5b6000612e6084828501612e27565b91505092915050565b7f4552433732313a206d696e7420746f20746865207a65726f2061646472657373600082015250565b6000612e9f602083611d82565b9150612eaa82612e69565b602082019050919050565b60006020820190508181036000830152612ece81612e92565b9050919050565b7f4552433732313a20746f6b656e20616c7265616479206d696e74656400000000600082015250565b6000612f0b601c83611d82565b9150612f1682612ed5565b602082019050919050565b60006020820190508181036000830152612f3a81612efe565b905091905056fea2646970667358221220e404ad05c7d71741c35017dcee75624e962d777c97720de07aeffb5a56ddc84c64736f6c634300080d0033",
  "immutableReferences": {},
  "source": "// SPDX-License-Identifier: MIT\npragma solidity 0.8.13;\n \nimport \"../node_modules/@openzeppelin/contracts/token/ERC721/ERC721.sol\";\nimport \"../node_modules/@openzeppelin/contracts/utils/Counters.sol\";\nimport \"../node_modules/@openzeppelin/contracts/access/Ownable.sol\";\n \ncontract NFT is ERC721, Ownable {\n    \n    string public baseURI;\n    uint public tokenCount;\n\n    constructor(string memory _name, string memory _symbol, string memory _baseUri) ERC721(_name, _symbol) {\n        setBaseUri(_baseUri);\n    }\n\n    function setBaseUri(string memory _uri) public onlyOwner {\n        baseURI = _uri;\n    }\n\n    function _baseURI() internal view override returns (string memory) {\n        return baseURI;\n    }\n\n    function mint() public onlyOwner {\n        tokenCount++;\n        _safeMint(msg.sender, tokenCount);\n    }\n\n    function getCount() public view returns(uint) {\n        return tokenCount;\n    }\n}",
  "sourcePath": "/home/tomawok-work/prog/solidity/NFT-platform/contracts/NFT.sol",
  "compiler": {
    "name": "solc",
    "version": "0.8.13+commit.abaa5c0e.Emscripten.clang"
  },
  "schemaVersion": "3.4.6",
  "updatedAt": "2022-06-02T14:20:19.960Z",
  "devdoc": {
    "kind": "dev",
    "methods": {
      "approve(address,uint256)": {
        "details": "See {IERC721-approve}."
      },
      "balanceOf(address)": {
        "details": "See {IERC721-balanceOf}."
      },
      "getApproved(uint256)": {
        "details": "See {IERC721-getApproved}."
      },
      "isApprovedForAll(address,address)": {
        "details": "See {IERC721-isApprovedForAll}."
      },
      "name()": {
        "details": "See {IERC721Metadata-name}."
      },
      "owner()": {
        "details": "Returns the address of the current owner."
      },
      "ownerOf(uint256)": {
        "details": "See {IERC721-ownerOf}."
      },
      "renounceOwnership()": {
        "details": "Leaves the contract without owner. It will not be possible to call `onlyOwner` functions anymore. Can only be called by the current owner. NOTE: Renouncing ownership will leave the contract without an owner, thereby removing any functionality that is only available to the owner."
      },
      "safeTransferFrom(address,address,uint256)": {
        "details": "See {IERC721-safeTransferFrom}."
      },
      "safeTransferFrom(address,address,uint256,bytes)": {
        "details": "See {IERC721-safeTransferFrom}."
      },
      "setApprovalForAll(address,bool)": {
        "details": "See {IERC721-setApprovalForAll}."
      },
      "supportsInterface(bytes4)": {
        "details": "See {IERC165-supportsInterface}."
      },
      "symbol()": {
        "details": "See {IERC721Metadata-symbol}."
      },
      "tokenURI(uint256)": {
        "details": "See {IERC721Metadata-tokenURI}."
      },
      "transferFrom(address,address,uint256)": {
        "details": "See {IERC721-transferFrom}."
      },
      "transferOwnership(address)": {
        "details": "Transfers ownership of the contract to a new account (`newOwner`). Can only be called by the current owner."
      }
    },
    "version": 1
  },
  "userdoc": {
    "kind": "user",
    "methods": {},
    "version": 1
  }
}